{
  "contractName": "Contest",
  "abi": [
    {
      "constant": true,
      "inputs": [
        {
          "name": "",
          "type": "address"
        }
      ],
      "name": "voters",
      "outputs": [
        {
          "name": "",
          "type": "bool"
        }
      ],
      "payable": false,
      "stateMutability": "view",
      "type": "function"
    },
    {
      "constant": true,
      "inputs": [
        {
          "name": "",
          "type": "uint256"
        }
      ],
      "name": "contestants",
      "outputs": [
        {
          "name": "id",
          "type": "uint256"
        },
        {
          "name": "name",
          "type": "string"
        },
        {
          "name": "voteCount",
          "type": "uint256"
        }
      ],
      "payable": false,
      "stateMutability": "view",
      "type": "function"
    },
    {
      "constant": true,
      "inputs": [],
      "name": "contestantsCount",
      "outputs": [
        {
          "name": "",
          "type": "uint256"
        }
      ],
      "payable": false,
      "stateMutability": "view",
      "type": "function"
    },
    {
      "inputs": [],
      "payable": false,
      "stateMutability": "nonpayable",
      "type": "constructor"
    },
    {
      "anonymous": false,
      "inputs": [
        {
          "indexed": true,
          "name": "_contestantId",
          "type": "uint256"
        }
      ],
      "name": "votedEvent",
      "type": "event"
    },
    {
      "constant": false,
      "inputs": [
        {
          "name": "_contestantId",
          "type": "uint256"
        }
      ],
      "name": "vote",
      "outputs": [],
      "payable": false,
      "stateMutability": "nonpayable",
      "type": "function"
    }
  ],
  "bytecode": "0x608060405234801561001057600080fd5b5061005e6040805190810160405280601081526020017f4e677579656e204875752054756f6e67000000000000000000000000000000008152506100fd640100000000026401000000009004565b6100ab6040805190810160405280601081526020017f4e677579656e2048757520546869656e000000000000000000000000000000008152506100fd640100000000026401000000009004565b6100f86040805190810160405280601581526020017f4e677579656e2056c4836e67204d696e6820546f6900000000000000000000008152506100fd640100000000026401000000009004565b61021e565b600260008154809291906001019190505550606060405190810160405280600254815260200182815260200160008152506000806002548152602001908152602001600020600082015181600001556020820151816001019080519060200190610168929190610179565b506040820151816002015590505050565b828054600181600116156101000203166002900490600052602060002090601f016020900481019282601f106101ba57805160ff19168380011785556101e8565b828001600101855582156101e8579182015b828111156101e75782518255916020019190600101906101cc565b5b5090506101f591906101f9565b5090565b61021b91905b808211156102175760008160009055506001016101ff565b5090565b90565b6104048061022d6000396000f300608060405260043610610062576000357c0100000000000000000000000000000000000000000000000000000000900463ffffffff1680630121b93f14610067578063a3ec138d14610094578063dfd50f52146100ef578063ec63d1c8146101a3575b600080fd5b34801561007357600080fd5b50610092600480360381019080803590602001909291905050506101ce565b005b3480156100a057600080fd5b506100d5600480360381019080803573ffffffffffffffffffffffffffffffffffffffff1690602001909291905050506102f0565b604051808215151515815260200191505060405180910390f35b3480156100fb57600080fd5b5061011a60048036038101908080359060200190929190505050610310565b6040518084815260200180602001838152602001828103825284818151815260200191508051906020019080838360005b8381101561016657808201518184015260208101905061014b565b50505050905090810190601f1680156101935780820380516001836020036101000a031916815260200191505b5094505050505060405180910390f35b3480156101af57600080fd5b506101b86103d2565b6040518082815260200191505060405180910390f35b600160003373ffffffffffffffffffffffffffffffffffffffff1673ffffffffffffffffffffffffffffffffffffffff16815260200190815260200160002060009054906101000a900460ff1615151561022757600080fd5b60008111801561023957506002548111155b151561024457600080fd5b6000808281526020019081526020016000206002016000815480929190600101919050555060018060003373ffffffffffffffffffffffffffffffffffffffff1673ffffffffffffffffffffffffffffffffffffffff16815260200190815260200160002060006101000a81548160ff021916908315150217905550807ffff3c900d938d21d0990d786e819f29b8d05c1ef587b462b939609625b684b1660405160405180910390a250565b60016020528060005260406000206000915054906101000a900460ff1681565b6000602052806000526040600020600091509050806000015490806001018054600181600116156101000203166002900480601f0160208091040260200160405190810160405280929190818152602001828054600181600116156101000203166002900480156103c25780601f10610397576101008083540402835291602001916103c2565b820191906000526020600020905b8154815290600101906020018083116103a557829003601f168201915b5050505050908060020154905083565b600254815600a165627a7a7230582097afd4df02c2febf3c82600ba3d94cda07b71a11da70fbc5455c35d74c0da3230029",
  "source": "pragma solidity ^0.4.24;\r\n\r\n/**\r\n * The Contest contract does this and that...\r\n */\r\ncontract Contest {\r\n\t// creating structure to model the contestant\r\n\tstruct Contestant {\r\n\t\t\r\n\t\tuint id;\r\n\t\tstring name;\r\n\t\tuint voteCount;\r\n\t\t\r\n\t}\r\n\t//use mapping to get or fetch the contestant details\r\n\tmapping(uint => Contestant) public contestants;\r\n\r\n\t//to save the list of users/account who already casted vote\r\n\tmapping(address => bool) public voters;\r\n\r\n\t//add a public state variable to keep track of contestant Count\r\n\tuint public contestantsCount;\r\n\r\n\tevent votedEvent(\r\n\t\tuint indexed _contestantId\r\n\t);\r\n\t\r\n\tfunction Contest ()  public{\r\n\t\taddContestant(\"Nguyen Huu Tuong\");\r\n\t\taddContestant(\"Nguyen Huu Thien\");\r\n\t\taddContestant(\"Nguyen Vﾄハg Minh Toi\");\r\n\t}\r\n\r\n\tfunction addContestant(string _name) private {\r\n\t\tcontestantsCount++;\r\n\t\tcontestants[contestantsCount] = Contestant(contestantsCount, _name,0);\r\n\t}\r\n\tfunction vote(uint _contestantId) public {\r\n\t\t//restricting the persion  who already casted the vote\r\n\t\trequire(!voters[msg.sender]);\r\n\r\n\t\t//require that the vote is casted to a valid contestant\r\n\t\trequire (_contestantId > 0  && _contestantId <= contestantsCount);\r\n\r\n\t\t// increase the contestant vote count\r\n\t\tcontestants[_contestantId].voteCount++;\r\n\r\n\t\t// set the voter's status to true\r\n\t\tvoters[msg.sender] = true;\t\r\n\r\n\t\t//trigger the vote event\r\n\t\tvotedEvent(_contestantId);\r\n\t}\r\n}\r\n",
  "sourcePath": "G:\\BlockChain\\contest\\contracts\\Contest.sol",
  "compiler": {
    "name": "solc",
    "version": "0.4.24+commit.e67f0147.Emscripten.clang"
  },
  "schemaVersion": "2.0.1",
  "updatedAt": "2019-08-29T11:52:42.270Z"
}